:100000000C942A000C944D010C943C000C943C0080
:100010000C943C000C943C000C943C000C943C0070
:100020000C943C000C943C000C943C000C943C0060
:100030000C943C000C943C000C943C000C943C0050
:100040000C943C000C943C000C943C000C943C0040
:100050000C943C0011241FBECFE5D8E0DEBFCDBF1D
:1000600020E0A0E6B0E001C01D92A236B207E1F7A1
:100070000E9426010C94BF020C94000064E482E00C
:100080000E941001089560E081E40E94170161E080
:1000900081E40E94170162E081E40E941701089543
:1000A00060E082E40E94170161E082E40E9417018F
:1000B00062E082E40E941701089562E081E40E94F8
:1000C0001B0160E082E40E941B0182E080936100DA
:1000D00085E090E00E94A20262E081E40E941F019C
:1000E00060E082E40E941F010895CF93DF9361E0F6
:1000F00081E40E941F0161E082E40E941F0181E00F
:1001000080936100C0E0D0E00DC061E081E40E9416
:10011000230161E082E40E94230181E090E00E94DB
:10012000A2022196C530D10584F361E081E40E94EA
:100130001F0161E082E40E941F01DF91CF910895C9
:1001400060E081E40E941B0162E082E40E941B01E6
:100150001092610085E090E00E94A20260E081E4DC
:100160000E941F0162E082E40E941F01089560E086
:1001700082E40E941B0185E090E00E94A20260E000
:1001800082E40E941F0108950895CF93DF93809128
:1001900061000E94C400823059F462E081E40E9450
:1001A0001B010E94B70062E081E40E941F0135C07C
:1001B000813011F0811131C060E081E40E941F01A3
:1001C00061E082E40E941B0161E081E40E941B0166
:1001D000C0E0D0E00DC061E082E40E94230161E054
:1001E00081E40E94230181E090E00E94A202219616
:1001F000C530D10584F361E082E40E941F0161E013
:1002000081E40E941F0162E081E40E941B010E94C0
:10021000B70062E081E40E941F01DF91CF91089551
:10022000982F862F40E0692F0E945C01089541E0DD
:100230000E945C01089541E00E94D601089540E0CB
:100240000E94D60108950E94500208950E943E0027
:100250000E9443000E9450000E94B50280916000FD
:10026000813021F40E94C500109260000E945D0060
:1002700080916000813021F40E94C50010926000DE
:100280000E94750080916000813021F40E94C500B9
:10029000109260000E94A000E1CF1F920F920FB653
:1002A0000F9211248F9381E0809360008F910F90C3
:1002B0000FBE0F901F901895823431F118F48134DD
:1002C00039F008958334E1F1843409F454C0089579
:1002D00041110CC02AB381E090E002C0880F991F41
:1002E0006A95E2F7809582238ABB0895413009F030
:1002F0005CC02AB381E090E002C0880F991F6A9524
:10030000E2F7822B8ABB089541110CC027B381E02C
:1003100090E002C0880F991F6A95E2F780958223CA
:1003200087BB0895413009F040C027B381E090E0D9
:1003300002C0880F991F6A95E2F7822B87BB089548
:1003400041110CC024B381E090E002C0880F991FD6
:100350006A95E2F78095822384BB0895413029F5A0
:1003600024B381E090E002C0880F991F6A95E2F7FC
:10037000822B84BB089541110CC021B381E090E031
:1003800002C0880F991F6A95E2F78095822381BB8E
:100390000895413051F421B381E090E002C0880F0C
:1003A000991F6A95E2F7822B81BB0895823431F15F
:1003B00018F4813439F008958334E1F1843409F478
:1003C00054C0089541110CC02BB381E090E002C0ED
:1003D000880F991F6A95E2F7809582238BBB089559
:1003E000413009F05CC02BB381E090E002C0880F7F
:1003F000991F6A95E2F7822B8BBB089541110CC0BF
:1004000028B381E090E002C0880F991F6A95E2F757
:100410008095822388BB0895413009F040C028B3FD
:1004200081E090E002C0880F991F6A95E2F7822B65
:1004300088BB089541110CC025B381E090E002C053
:10044000880F991F6A95E2F78095822385BB0895EE
:10045000413029F525B381E090E002C0880F991F53
:100460006A95E2F7822B85BB089541110CC022B337
:1004700081E090E002C0880F991F6A95E2F78095AD
:10048000822382BB0895413051F422B381E090E091
:1004900002C0880F991F6A95E2F7822B82BB0895EC
:1004A0008234A1F018F4813431F008958334C9F016
:1004B000843411F108952BB381E090E002C0880FDD
:1004C000991F6A95E2F782278BBB089528B381E0D4
:1004D00090E002C0880F991F6A95E2F7822788BBD7
:1004E000089525B381E090E002C0880F991F6A95B6
:1004F000E2F7822785BB089522B381E090E002C035
:10050000880F991F6A95E2F7822782BB08951FBC66
:100510001EBC089587EF8CBD82EC8DBD08958EB50D
:1005200083608EBD08950E9487020E948A020E9405
:100530008F0208B602FEFDCF88B7846088BF0E9494
:10054000870208950F931F93CF93DF938C01C0E030
:10055000D0E003C00E9493022196C017D107D1F7C3
:10056000DF91CF911F910F9108958FB780688FBF52
:1005700085B7836085BF8BB780648BBF0895F8947F
:02058000FFCFAB
:00000001FF
